:030000000200CA31
:0C00CA00787FE4F6D8FD7581200201115A
:10032400039F250D9949411F01191946154344405E
:040334000D0E000F9B
:05038800C100010A01A3
:09035B00C280C281C282C2832269
:09036400D280C281D282C2832240
:09036D00C280D281C282D2832237
:09037600C280D281D282C283222E
:09037F00D280C281C282D2832225
:07030A0012035B7F967E00E9
:100311007D0A7C3200DCFDDDF9EF1F70011E144EF9
:0203210070EE7C
:0103230022B7
:10034A007C007D0A1201B7EF1F70011E144E70F770
:01035A002280
:1002EE00AB07AA060BBB00010AEB1B70011A144ADE
:0C02FE0060097F847E0312034A80EE2218
:10033800AD071FED600BE4FEEEC3940D50F20E8086
:01034800F7BD
:010349002291
:0E0003007F307E75EF1FAC0670011E4C70F64C
:0100110022CC
:1002C40012035BEF24FE601314601514601524FC04
:1002D400601424077013C2A0020364D2A002036D49
:0A02E40002037602037F12035B227F
:10028E0012035BEF24FE601614601B14601E24FC28
:10029E0060202407701F12030AC2A0020364120317
:1002AE000AD2A002036D12030A02037612030A0297
:0602BE00037F12035B2226
:10020C00A2B592A0A2B69287A2B79297A2B79286F5
:10021C0020B7237F081202C47F2C7E011202EE7FCE
:10022C00021202C47FE87E031202EE7F031202C4A4
:10023C007F087E0780097F011202C47F0A7E0012AC
:07024C0002EE7F010202C473
:10025300A2B592A0A2B69287A2B79297A2B59286B0
:1002630020B50720B6047F01801220B50730B604FD
:100273007F03800830B50F20B60C7F041202C47FC1
:0B0283000A7E001202EE7F080202C497
:10015600C20175080B7509B8D28AD2AF7F081202A0
:10016600C420B20F7F0A7E001202EE20B205050AF5
:1001760030B2FDE50AD394034003750A01E50A246B
:10018600FE6015146020240270D7900325E493F5D1
:10019600A0120253C2AA80C9900326E493F5A012C6
:1001A600020CC2AA80BB900327E493F5A0D2AA80D2
:0101B600B098
:03001300020016D2
:0B001600C0E0C083C082C0D075D000E5
:10002100E4FCC2AA7F0F12033830B305D2AA020042
:10003100C120B3077F0112033880F67512007513D2
:100041000030B3077F0112033880F620B3077F0128
:1000510012033880F630B3107F011203380CECC361
:10006100941E40F1D2AA8058740B2512F8C000E604
:10007100FFC313D000F6ECC394084009740B25129A
:10008100F8E64480F67C000513E513C3940840B1FB
:100091000512E512C3940440A5E50EF4650D600454
:1000A100D2AA801C751200E51290032E93B50D059E
:1000B100AF1212028E0512E512C3940A40E9D2AAC8
:0900C100D0D0D082D083D0E0320F
:1000D600020156E493A3F8E493A34003F68001F2E9
:1000E60008DFF48029E493A3F85407240CC8C3332B
:1000F600C4540F4420C8834004F456800146F6DFFA
:10010600E4800B0102040810204080900388E47EFE
:10011600019360BCA3FF543F30E509541FFEE493EE
:10012600A360010ECF54C025E060A840B8E493A3B5
:10013600FAE493A3F8E493A3C8C582C8CAC583CAE0
:10014600F0A3C8C582C8CAC583CADFE9DEE780BE98
:01038D00006F
:1001B700BC000BBE0029EF8DF084FFADF022E4CC2C
:1001C700F875F008EF2FFFEE33FEEC33FCEE9DECF5
:1001D700984005FCEE9DFE0FD5F0E9E4CEFD22ED3B
:1001E700F8F5F0EE8420D21CFEADF075F008EF2F85
:1001F700FFED33FD4007985006D5F0F222C398FD76
:050207000FD5F0EA2212
:00000001FF
